:1000000048010020551B0000C11B0000C91B000057
:10001000D11B0000D11B0000D11B0000000000001C
:10002000000000000000000000000000D11B0000E4
:10003000D11B000000000000D11B0000D11B0000FC
:10004000D11B0000D11B0000D11B0000D11B000000
:10005000D11B0000D11B0000D11B0000D11B0000F0
:10006000D11B0000D11B0000D11B0000D11B0000E0
:10007000D11B0000D11B0000D11B0000D11B0000D0
:10008000D11B0000D11B0000D11B0000D11B0000C0
:10009000D11B0000D11B0000D11B0000D11B0000B0
:1000A000D11B0000D11B0000D11B0000D11B0000A0
:1000B000D11B0000D11B0000D11B0000D11B000090
:1000C000D11B0000D11B0000D11B0000D11B000080
:1000D000D11B0000D11B0000D11B0000D11B000070
:1000E000D11B00000000000000000000D11B000038
:1000F000D11B0000D11B0000D11B0000D11B000050
:10010000D11B0000D11B0000D11B0000D11B00003F
:100110000000000000000000D11B0000D11B000007
:10012000D11B0000D11B0000D11B0000D11B00001F
:10013000D11B0000D11B0000D11B0000D11B00000F
:1001400000000000000000000000000000000000AF
:10015000D11B0000D11B0000D11B0000D11B0000EF
:10016000000000000000000000000000000000008F
:10017000000000000000000000000000000000007F
:10018000000000000000000000000000000000006F
:10019000000000000000000000000000000000005F
:1001A000000000000000000000000000000000004F
:1001B000D11B0000D11B0000D11B0000D11B00008F
:1001C000D11B0000D11B0000D11B0000D11B00007F
:1001D000D11B0000D11B0000D11B0000D11B00006F
:1001E000D11B0000D11B0000D11B0000000000004B
:1001F00000000000D11B0000D11B0000D11B00003B
:10020000D11B0000D11B0000000000000000000016
:10021000D11B0000D11B0000D11B0000D11B00002E
:10022000D11B0000D11B0000D11B0000D11B00001E
:10023000D11B0000D11B0000D11B0000D11B00000E
:10024000D11B0000D11B0000D11B0000D11B0000FE
:10025000D11B0000D11B0000D11B0000D11B0000EE
:10026000D11B0000D11B0000D11B000080B500AFE6
:10027000114801F0E0FD012001F0A4FD40F2014031
:1002800001F0A0FD03214FF0402001F08CFD01F0B2
:10029000E3FD014660234FF416724FF0402001F059
:1002A0008AFE01F0D9FD03461A464FF4167100206C
:1002B00001F092FC00BF80BD000800F080B400AFE8
:1002C000394A394B1B6843F001031360364B1B68F6
:1002D000364A1360364A364B1B6823F0E00313603E
:1002E000344A344B1B68C3F313031360324A324B56
:1002F0001B6843F0E0031360304A304B1B6823F067
:10030000E00313602E4A2E4B1B6843F0E00313609A
:100310002C4A2C4B1B6843F0E0031360224A224B0B
:100320001B6843F0020313601F4B1B681F4A1360D6
:10033000254A254B1B6823F0FF031360234B1B68E2
:10034000224B00221A60224A214B1B6843F0FF0314
:100350001360204A1F4B1B6823F0FF0313601E4AE3
:100360001D4B1B6843F0FF0313601C4A1B4B1B68AB
:1003700043F0FF0313600C4A0B4B1B6843F0100360
:100380001360094B1B68094A1360154A144B1B681C
:100390001360144A134B1B6843F01F03136000BF24
:1003A000BD465DF8047B704708E10F405401002012
:1003B000284500402C4500400044004020440040B7
:1003C0001C45004008450040285500402C55004081
:1003D00000540040205400401C5500400855004087
:1003E000004402401C45024080B483B000AF034685
:1003F000FB711E4A1D4B1B6823F0E00313601C4A6F
:10040000FB791360194A194B1B6843F08003136092
:10041000164A164B1B6823F060031360154B00222D
:100420001A6004E0134B1B680133124A1360114B2E
:100430001B68002BF6D00D4A0C4B1B6823F0E00321
:1004400013600C4B00221A6004E00A4B1B68013356
:10045000084A1360074B1B68B3F57A7FF5D300BFDA
:100460000C37BD465DF8047B704700BFFC4300407D
:10047000FC5300405401002080B483B000AF034619
:10048000FB711B4AFB7913601A4A1A4B1B6843F035
:10049000C0031360174A174B1B6823F02003136037
:1004A000154B00221A6004E0134B1B680133124AFB
:1004B0001360114B1B68162BF6D90E4A0D4B1B68A7
:1004C00023F0E00313600C4B00221A6004E00A4B97
:1004D0001B680133084A1360074B1B68B3F57A7F2A
:1004E000F5D300BF0C37BD465DF8047B704700BFF5
:1004F000FC530040FC4300405401002080B500AF95
:10050000FFF7DCFE254B00221A6004E0234B1B683A
:100510000133224A1360214B1B6843F69722934212
:10052000F4D93820FFF760FF1C4B00221A6004E06A
:100530001A4B1B680133194A1360184B1B6841F2B0
:1005400087329342F4D93820FFF74EFF134B002235
:100550001A6004E0114B1B680133104A13600F4B03
:100560001B68952BF6D90C20FFF73EFF0120FFF703
:100570003BFF0620FFF738FF084B00221A6004E01B
:10058000064B1B680133054A1360044B1B684CF291
:100590004F329342F4D900BF80BD00BF5401002008
:1005A00080B586B000AFF860B9607A60FB68012B57
:1005B00001D1802300E0C0237B617B69DAB2BB6894
:1005C000DBB21344DBB21846FFF70EFF06E07B6890
:1005D0005A1C7A601B781846FFF74EFF7B681B7821
:1005E000002BF4D100BF1837BD4680BD80B400AFEA
:1005F000264B1B6803F01003002B41D0234B1B68D4
:1006000003F02003002B39D0204B1B6803F00803B4
:10061000002B31D01D4B1B6803F00403002B29D0A5
:100620001A4B1B6803F00203002B21D0174B1B68E9
:1006300003F00103002B19D0154B1B6803F00103D5
:10064000002B11D0124B1B6803F01003002B09D0B4
:100650000F4B1B6803F00203002B01D1092310E0AC
:1006600000230EE008230CE007230AE0062308E03D
:10067000052306E0042304E0032302E0022300E054
:1006800001231846BD465DF8047B7047FC430240D9
:10069000FC53024080B483B000AF134A124B1B6876
:1006A00043F010031360114B1B687B60104B114A21
:1006B0001A60114B3F221A60104B00221A60104B37
:1006C00000221A600F4B00221A600F4B00221A60A2
:1006D0000E4B3F221A600E4B3F221A6000BF0C37B0
:1006E000BD465DF8047B704708E10F4008E60F4007
:1006F000204502404B434F4C2445024028450240D0
:100700002C45024000440240204402401045024073
:100710001C45024080B483B000AF0F4B1B687B6068
:100720000D4A0D4B1B6843F0200313600B4B0C4A22
:100730001A600C4B01221A600B4B0C221A600B4BF7
:1007400013221A600A4B1F221A6000BF0C37BD46E5
:100750005DF8047B704700BF08E60F40205502405B
:100760004B434F4C24550240005402401055024068
:100770001C55024090B5ABB000AFFFF78BFFFFF701
:10078000BDFEFFF7C7FFFFF771FD0023C7F8A430D8
:100790000023C7F8A430C14AC04B1B6823F00403F0
:1007A0001360BE4ABD4B1B6823F008031360BC4AAC
:1007B0004FF000034FF00004C2E90034B94A4FF093
:1007C00000034FF00004C2E90034B74A4FF00003C1
:1007D0004FF00004C2E90034FFF708FF0346002B86
:1007E00006D0FFF703FF0246B04B1A6001F07FB955
:1007F000AE4B1B68002B01F07781AC4B1B68012BC3
:1008000040F06481D7F8A430002B40F0A68001208E
:10081000FFF7EAFDA24BD3E900014FF00002A44B21
:1008200001F0F4FB03460C469D4AC2E9003407F18F
:10083000880300221A605A609A60DA60984BD3E904
:1008400000341846214601F01BFE0346994A82FBFC
:1008500003129211DB17D31ADBB23033DBB25BB277
:1008600087F888308E4BD3E900341846214601F0D2
:1008700007FE02468F4B83FB02139911D317CB1A45
:100880004FF47A7101FB03F3D31A8B4A82FB0312F4
:100890005211DB17D31ADBB23033DBB25BB287F80D
:1008A00089307F4BD3E900341846214601F0E8FD3A
:1008B0000246814B83FB02135911D317CB1A6421D3
:1008C00001FB03F3D31A7D4A82FB03129210DB175C
:1008D000D31ADBB23033DBB25BB287F88A30704BAD
:1008E000D3E900341846214601F0CAFD0146734B96
:1008F00083FB01239A10CB17D21A13469B00134493
:100900005B00CA1AD3B23033DBB25BB287F88B30EC
:10091000202387F88C30542387F88D304C2387F8B8
:100920008E30202387F88F30612387F8903074232E
:1009300087F89130692387F892306C2387F89330D9
:10094000642387F89430692387F8953007F188038A
:100950001A4600210120FFF723FED7F8A430012B0F
:1009600041F0C2800120FFF73FFD4E4BD3E900016B
:100970004FF00002524B01F049FB03460C46494A36
:10098000C2E9003407F17C0300221A605A601A8120
:10099000444BD3E900341846214601F071FD03466B
:1009A000444A82FB03129211DB17D31ADBB23033B5
:1009B000DBB25BB287F87C303A4BD3E9003418469F
:1009C000214601F05DFD02463A4B83FB021399116B
:1009D000D317CB1A4FF47A7101FB03F3D31A364ABB
:1009E00082FB03125211DB17D31ADBB23033DBB2B6
:1009F0005BB287F87D302B4BD3E900341846214693
:100A000001F03EFD02462C4B83FB02135911D31714
:100A1000CB1A642101FB03F3D31A284A82FB031289
:100A20009210DB17D31ADBB23033DBB25BB287F83C
:100A30007E301C4BD3E900341846214601F020FDDE
:100A400001461E4B83FB01239A10CB17D21A134683
:100A50009B0013445B00CA1AD3B23033DBB25BB2E3
:100A600087F87F30202387F88030742387F881301F
:100A70006C2387F8823007F17C031A46002101209D
:100A8000FFF78EFD0F4A00210220FFF789FD0E4B74
:100A90001B68013B0C4A136001F026B8FC5302406E
:100AA00038000020400000203000002028000020F6
:100AB00000001440D34D62101F85EB5167666666D7
:100AC00000002E40D024000014000020A84B1B681A
:100AD000022B40F05F81D7F8A430002B40F0A680B5
:100AE0000120FFF781FCA34BD3E900014FF0000286
:100AF000A14B01F08BFA03460C469E4AC2E9003432
:100B000007F16C0300221A605A609A60DA60994B10
:100B1000D3E900341846214601F0B2FC0346974A57
:100B200082FB03129211DB17D31ADBB23033DBB234
:100B30005BB287F86C308F4BD3E9003418462146FE
:100B400001F09EFC02468D4B83FB02139911D317D3
:100B5000CB1A4FF47A7101FB03F3D31A884A82FB54
:100B600003125211DB17D31ADBB23033DBB25BB2A4
:100B700087F86D307F4BD3E900341846214601F0E9
:100B80007FFC02467E4B83FB02135911D317CB1A0D
:100B9000642101FB03F3D31A7A4A82FB03129210F9
:100BA000DB17D31ADBB23033DBB25BB287F86E30BF
:100BB000704BD3E900341846214601F061FC014630
:100BC000704B83FB01239A10CB17D21A13469B005C
:100BD00013445B00CA1AD3B23033DBB25BB287F87E
:100BE0006F30202387F87030542387F871304C23FE
:100BF00087F87230202387F87330612387F87430C8
:100C0000742387F87530692387F876306C2387F86A
:100C10007730642387F87830692387F8793007F1D3
:100C20006C031A4600210120FFF7BAFCD7F8A43064
:100C3000012B40F059870120FFF7D6FB524BD3E937
:100C400000014FF000024C4B01F0E0F903460C4666
:100C50004D4AC2E9003407F1600300221A605A606D
:100C60001A81494BD3E900341846214601F008FCAB
:100C70000346424A82FB03129211DB17D31ADBB2FE
:100C80003033DBB25BB287F860303F4BD3E90034DE
:100C90001846214601F0F4FB0246384B83FB021351
:100CA0009911D317CB1A4FF47A7101FB03F3D31ABE
:100CB000334A82FB03125211DB17D31ADBB23033F3
:100CC000DBB25BB287F861302F4BD3E900341846B2
:100CD000214601F0D5FB0246294B83FB0213591133
:100CE000D317CB1A642101FB03F3D31A254A82FBE5
:100CF00003129210DB17D31ADBB23033DBB25BB2D4
:100D000087F86230204BD3E900341846214601F0C1
:100D1000B7FB01461B4B83FB01239A10CB17D21A5A
:100D200013469B0013445B00CA1AD3B23033DBB2C4
:100D30005BB287F86330202387F86430742387F828
:100D400065306C2387F8663007F160031A4600218E
:100D50000120FFF725FC0D4A00210220FFF720FCAF
:100D60000B4B1B68013B0A4A136000F0BDBE00BF7D
:100D7000280000203800002000002440D34D6210DD
:100D80001F85EB516766666640000020E024000086
:100D900020000020A54B1B68032B40F05B81D7F897
:100DA000A430002B40F0A6800120FFF71DFBA04BD4
:100DB000D3E900014FF000029E4B01F027F90346F2
:100DC0000C469B4AC2E9003407F1500300221A6026
:100DD0005A609A60DA60964BD3E90034184621468F
:100DE00001F04EFB0346944A82FB03129211DB177B
:100DF000D31ADBB23033DBB25BB287F850308C4BA6
:100E0000D3E900341846214601F03AFB02468A4BEA
:100E100083FB02139911D317CB1A4FF47A7101FB9C
:100E200003F3D31A854A82FB03125211DB17D31A3C
:100E3000DBB23033DBB25BB287F851307C4BD3E9A5
:100E400000341846214601F01BFB02467B4B83FB16
:100E500002135911D317CB1A642101FB03F3D31AE0
:100E6000774A82FB03129210DB17D31ADBB23033BE
:100E7000DBB25BB287F852306D4BD3E900341846D1
:100E8000214601F0FDFA01466D4B83FB01239A10C8
:100E9000CB17D21A13469B0013445B00CA1AD3B275
:100EA0003033DBB25BB287F85330202387F85430FD
:100EB000542387F855304C2387F85630202387F881
:100EC0005730612387F85830742387F859306923E5
:100ED00087F85A306C2387F85B30642387F85C30DE
:100EE000692387F85D3007F150031A46002101207D
:100EF000FFF756FBD7F8A430012B40F0F585012011
:100F0000FFF772FA4F4BD3E900014FF000024E4B4E
:100F100001F07CF803460C464A4AC2E90034494BCA
:100F2000D3E900341846214601F0AAFA0346424AA2
:100F300082FB03129211DB17D31ADBB23033DBB220
:100F40005BB287F848303F4BD3E90034184621465E
:100F500001F096FA0246384B83FB02139911D3171E
:100F6000CB1A4FF47A7101FB03F3D31A334A82FB95
:100F700003125211DB17D31ADBB23033DBB25BB290
:100F800087F849302F4BD3E900341846214601F049
:100F900077FA0246294B83FB02135911D317CB1A58
:100FA000642101FB03F3D31A254A82FB031292103A
:100FB000DB17D31ADBB23033DBB25BB287F84A30CF
:100FC000204BD3E900341846214601F059FA014676
:100FD0001B4B83FB01239A10CB17D21A13469B009D
:100FE00013445B00CA1AD3B23033DBB25BB287F86A
:100FF0004B30202387F84C30742387F84D306C2316
:1010000087F84E3007F148031A4600210120FFF708
:10101000C7FA0E4A00210220FFF7C2FA0C4B1B68E8
:10102000013B0B4A136000F05FBD00BF28000020A9
:101030003800002000003440D34D62101F85EB5172
:10104000676666664000002000001440F02400003F
:101050001C000020A44B1B68042B40F05781D7F8DC
:10106000A430002B40F0A6800120FFF7BDF99F4B74
:10107000D3E900014FF000029D4B00F0C7FF03468B
:101080000C469A4AC2E9003407F1380300221A607C
:101090005A609A60DA60954BD3E9003418462146CD
:1010A00001F0EEF90346934A82FB03129211DB171B
:1010B000D31ADBB23033DBB25BB287F838308B4BFC
:1010C000D3E900341846214601F0DAF90246894B8B
:1010D00083FB02139911D317CB1A4FF47A7101FBDA
:1010E00003F3D31A844A82FB03125211DB17D31A7B
:1010F000DBB23033DBB25BB287F839307B4BD3E9FC
:1011000000341846214601F0BBF902467A4B83FBB6
:1011100002135911D317CB1A642101FB03F3D31A1D
:10112000764A82FB03129210DB17D31ADBB23033FC
:10113000DBB25BB287F83A306C4BD3E90034184627
:10114000214601F09DF901466C4B83FB01239A1067
:10115000CB17D21A13469B0013445B00CA1AD3B2B2
:101160003033DBB25BB287F83B30202387F83C306A
:10117000542387F83D304C2387F83E30202387F8EE
:101180003F30612387F84030742387F8413069236A
:1011900087F842306C2387F84330642387F8443063
:1011A000692387F8453007F138031A4600210120EA
:1011B000FFF7F6F9D7F8A430012B40F09584012011
:1011C000FFF712F94E4BD3E900014FF00002484BF4
:1011D00000F01CFF03460C46494AC2E90034484B64
:1011E000D3E900341846214601F04AF90346414A42
:1011F00082FB03129211DB17D31ADBB23033DBB25E
:101200005BB287F830303E4BD3E9003418462146B4
:1012100001F036F90246374B83FB02139911D317BD
:10122000CB1A4FF47A7101FB03F3D31A324A82FBD3
:1012300003125211DB17D31ADBB23033DBB25BB2CD
:1012400087F831302E4BD3E900341846214601F09F
:1012500017F90246284B83FB02135911D317CB1AF7
:10126000642101FB03F3D31A244A82FB0312921078
:10127000DB17D31ADBB23033DBB25BB287F8323024
:101280001F4BD3E900341846214601F0F9F8014616
:101290001A4B83FB01239A10CB17D21A13469B00DB
:1012A00013445B00CA1AD3B23033DBB25BB287F8A7
:1012B0003330202387F83430742387F835306C239B
:1012C00087F8363007F130031A4600210120FFF776
:1012D00067F90C4A00210220FFF762F90A4B1B68EC
:1012E000013B094A1360FFE328000020380000207A
:1012F00000004940D34D62101F85EB51676666665A
:10130000400000200025000018000020604B1B68F2
:10131000052B40F0AC80D7F8A430002B40F0E483DC
:101320000120FFF761F85B4BD3E900014FF00002A9
:10133000594B00F06BFE03460C46564AC2E9003496
:1013400007F1200300221A605A609A60DA60514B5C
:10135000D3E900341846214601F092F803464F4A7B
:1013600082FB03129211DB17D31ADBB23033DBB2EC
:101370005BB287F82030474BD3E90034184621464A
:1013800001F07EF80246454B83FB02139911D317F7
:10139000CB1A4FF47A7101FB03F3D31A404A82FB54
:1013A00003125211DB17D31ADBB23033DBB25BB25C
:1013B00087F82130374BD3E900341846214601F035
:1013C0005FF80246364B83FB02135911D317CB1A31
:1013D000642101FB03F3D31A324A82FB03129210F9
:1013E000DB17D31ADBB23033DBB25BB287F82230C3
:1013F000284BD3E900341846214601F041F8014654
:10140000284B83FB01239A10CB17D21A13469B005B
:1014100013445B00CA1AD3B23033DBB25BB287F835
:101420002330202387F82430542387F825304C2399
:1014300087F82630202387F82730612387F8283063
:10144000742387F82930692387F82A306C2387F8BA
:101450002B30642387F82C30692387F82D3007F16F
:1014600020031A4600210120FFF79AF83CE3084BBD
:101470001B68062B1AD10120FEF7B6FF0123C7F81F
:10148000A430094A00210120FFF78AF82CE300BFAD
:10149000280000203800002000005940D34D621081
:1014A0001F85EB5167666666102500009B4B1B6825
:1014B000072B40F0A3820120FEF796FF984BD3E95B
:1014C0000001984BD3E900341A46234600F09CFDF6
:1014D00003460C46944AC2E90034934BD3E9000119
:1014E0004FF000024FF0000300F0B6FF0346002B60
:1014F00000F067820023C7F8A0308B4BD3E900349B
:101500001846214600F0BCFF0346C7F89C30874BC5
:101510001B68642202FB03F2854B1B68322101FB2E
:1015200003F3D118834B1A6813469B0013449B00A6
:101530001944814B1A6813469B0013445B001944FD
:101540007E4B1A6813469B0013440B44C7F898302F
:10155000764B1B68002B28DDD7F8980000F0A2FE20
:10156000714BD3E900341A46234600F075FF034659
:10157000002B1AD06D4B1A68D7F89C30704981FB4C
:1015800003014911DB17CB1AD31A684A1360D7F845
:101590009C306B4A82FB03125111DA178A1A6421BC
:1015A00001FB02F29B1AC7F89C30614B1B68002BB1
:1015B00028DDD7F8980000F075FE5B4BD3E90034C6
:1015C0001A46234600F048FF0346002B1AD0584B1A
:1015D0001A68D7F89C305A4981FB03010911DB17BF
:1015E000CB1AD31A524A1360D7F89C30544A82FB64
:1015F00003121111DA178A1A322101FB02F29B1A27
:10160000C7F89C304B4B1B68002B29DDD7F898009E
:1016100000F048FE444BD3E900341A46234600F05C
:101620001BFF0346002B1BD0424B1A68D7F89C3097
:10163000444981FB0301C910DB17CB1AD31A3D4A79
:101640001360D7F89C203F4B83FB0213D910D317AC
:10165000C91A0B469B000B449B00D31AC7F89C3059
:10166000354B1B68002B29DDD7F8980000F01AFED7
:101670002D4BD3E900341A46234600F0EDFE034615
:10168000002B1BD02C4B1A68D7F89C302D4981FBBE
:1016900003018910DB17CB1AD31A274A1360D7F836
:1016A0009C20284B83FB02139910D317C91A0B46B1
:1016B0009B000B445B00D31AC7F89C301F4B1B6880
:1016C000002B1BDDD7F8980000F0ECFD164BD3E99A
:1016D00000341A46234600F0BFFE0346002B0DD00F
:1016E000164B1A68D7F89C30164981FB0301491044
:1016F000DB17CB1AD31A114A136003E04FF0FF3304
:10170000C7F8A030D7F8A030B3F1FF3F1ED10E4A82
:1017100000210220FEF744FFE6E100BF2800002080
:101720003800002040000020300000201000002081
:10173000000000200C000020080000200400002011
:101740001F85EB516766666620250000A04BD3E934
:1017500000341846214600F093FE03469D4A82FB62
:1017600003129211DB17D31ADBB23033DBB25BB258
:101770003B74974BD3E900341846214600F080FEB5
:101780000246944B83FB02139911D317CB1A4FF4E3
:101790007A7101FB03F3D31A8F4A82FB03125211B1
:1017A000DB17D31ADBB23033DBB25BB27B74884B0E
:1017B000D3E900341846214600F062FE0246864B0B
:1017C00083FB02135911D317CB1A642101FB03F3D6
:1017D000D31A824A82FB03129210DB17D31ADBB2B0
:1017E0003033DBB25BB2BB74794BD3E900341846BB
:1017F000214600F045FE0146784B83FB01239A10F9
:10180000CB17D21A13469B0013445B00CA1AD3B2FB
:101810003033DBB25BB2FB7420233B7574237B75E2
:101820006C23BB752023FB7550233B7661237B76AD
:101830007223BB766123FB7620233B7755237B778E
:101840007323BB777423FB773B4600221A605A60F0
:101850009A60DA60624B1B68604A82FB0312921046
:10186000DB17D31ADBB23033DBB25BB23B705C4BBD
:101870001A685A4B83FB02139910D317C91A0B46E7
:101880009B000B445B00D11ACBB23033DBB25BB2AE
:101890007B702023BB70534B1B68504A82FB0312A2
:1018A0009210DB17D31ADBB23033DBB25BB2FB70C2
:1018B0004C4B1A68494B83FB02139910D317C91A72
:1018C0000B469B000B445B00D11ACBB23033DBB22A
:1018D0005BB23B7120237B71434B1B683F4A82FB09
:1018E00003129210DB17D31ADBB23033DBB25BB2D8
:1018F000BB713D4B1A68394B83FB02139910D31708
:10190000C91A0B469B000B445B00D11ACBB2303393
:10191000DBB25BB2FB7120233B72344B1B682F4A56
:1019200082FB03129210DB17D31ADBB23033DBB227
:101930005BB27B722D4B1A68284B83FB0213991004
:10194000D317C91A0B469B000B445B00D11ACBB2CC
:101950003033DBB25BB2BB722023FB72244B1B68BB
:101960001E4A82FB03129210DB17D31ADBB230330C
:10197000DBB25BB23B731E4B1A68184B83FB02133E
:101980009910D317C91A0B469B000B445B00D11A60
:10199000CBB23033DBB25BB27B7307F110031A4674
:1019A00000210120FEF7FCFD3B461A4600210220E3
:1019B000FEF7F6FD0F4A0F4B1B6843F0040313605C
:1019C00092E00D4A00210220FEF7EAFD8CE000BF04
:1019D00030000020D34D62101F85EB5167666666AC
:1019E00004000020080000200C000020000000205F
:1019F00010000020FC53024030250000444B1B68BF
:101A0000082B47D10120FEF7EFFC0023C7F8A430D4
:101A1000404A404B1B6823F0040313603D4A3D4B92
:101A20001B6823F0080313603B4A4FF000034FF09C
:101A30000004C2E90034394A4FF000034FF00004BB
:101A4000C2E90034364A4FF000034FF00004C2E907
:101A50000034344B0A221A60334B14221A60334B81
:101A600014221A60324B0A221A60324B05221A6085
:101A7000314B1E221A60314B14221A60304B642203
:101A80001A60304B32221A602F4A00210120FEF7E3
:101A900087FD29E01E4B1B68092B25D10120FEF78D
:101AA000A3FC0023C7F8A4301B4A4FF000034FF0FB
:101AB0000004C2E90034194A4FF000034FF000045B
:101AC000C2E90034164A4FF000034FF00004C2E9A7
:101AD0000034104A0F4B1B6823F0040313601B4AA9
:101AE00000210120FEF75CFD094B00221A60184B13
:101AF00000221A6004E0164B1B680133144A13607D
:101B0000134B1B68B3F57A7FF5D3FEF765BE00BFB4
:101B100028000020FC530240380000204000002034
:101B200030000020000000200400002008000020F9
:101B30000C000020100000201400002018000020DD
:101B40001C00002020000020402500004C25000043
:101B50005401002080B582B000AF134B7B60134B63
:101B60003B6007E03B681A1D3A607A68111D796096
:101B700012681A603B680E4A9342F3D30E480F492D
:101B80004FF000028842B8BF40F8042BFADB094A44
:101B9000084B1B6843F470031360FEF7EBFD00BFB6
:101BA0000837BD4680BD00BF84260000000000202D
:101BB0002400002088ED00E0280000205C010020C7
:101BC00080B400AFFEE700BF80B400AFFEE700BF07
:101BD00080B400AFFEE700BF80B584B000AFF8600E
:101BE000B9607A60154AFB6852F82330184600F055
:101BF0000FF9034683F00103DBB2002B19D1104A21
:101C0000FB6852F823300F4A13600C4AFB6852F805
:101C10002330184600F00FF90A4B18686023BA68A1
:101C2000796800F0C8F9074B1B68184600F0AAF95C
:101C300000E000BF1037BD4680BD00BF6425000036
:101C40005825000048010020D0F8003412F0010FA0
:101C500010B500F5806414BF0B438B43236012F072
:101C6000020FD0F8202400F5846314BF114322EA48
:101C70000101196010BDF0B5C2F34116002441FA0C
:101C800004F5ED0711D5D0F8C47F65004FF0030CC3
:101C90000CFA05FC27EA0C07C0F8C47FD0F8C47F13
:101CA00006FA05F53D43C0F8C45F0134082CE6D1BF
:101CB000D0F8004512F0010F00F5A06514BF0C43E9
:101CC0008C432C60D0F8044512F0020F00F204554A
:101CD00014BF0C438C432C60D0F8084512F0040F5D
:101CE00000F5A16514BF0C438C432C60D0F8184557
:101CF00012F0080F00F5A36514BF0C438C432C6051
:101D000012F0100FD0F83C2500F23C5414BF0A43E7
:101D10008A432260D0F80C2513F0010F00F20C5416
:101D200014BF0A438A432260D0F8102513F0020F33
:101D300000F5A26414BF0A438A432260D0F8142538
:101D400013F0040F00F2145414BF0A438A432260B4
:101D5000D0F81C2513F0080F00F21C5414BF0A43DE
:101D60008A432260D0F8442513F4007F00F24454E3
:101D700014BF0A438A432260D0F8402513F4407F01
:101D800000F5A86414BF0A438A43226000F5A562E7
:101D90001BB9D0F82805014303E0D0F8283523EA21
:101DA00001011160F0BD70B5022205460C46FFF737
:101DB0004BFF2846214601220823BDE87040FFF76B
:101DC0005ABF0000104BC0F3074210B501211C6838
:101DD0000E4B01FA02F121424FEA420218BF0132D2
:101DE0000F2153F82230C0F30722D3F82C4501FA13
:101DF00002F100F00F0024EA010100FA02F211439F
:101E0000C3F82C1510BD00BF6CE00F40702500001A
:101E1000C3B2C0F30720990000F57E2341F084424D
:101E200003F5407121F4700042EA40121368181C57
:101E300018BF01207047C3B2C0F30720990000F516
:101E40007E2341F0844203F5C06121F4700042EA30
:101E500040120123136070473F4B19681A69002A2A
:101E6000B4BF02F0700301F03003202B70B515D021
:101E700004D853B1102B6DD1384B10E0302B0AD061
:101E8000702B67D14FF4004309E0C1F38410344B49
:101E900053F8203003E047F2305300E0314B002A82
:101EA00002DA12F4006F01E011F4006F32D12E4D0E
:101EB0002C686D6805F01F06701C4600C5F30420F1
:101EC00001307043B3FBF0F0A305C4F3892444430D
:101ED0009B0DA40A03FB00432448006800F47040F3
:101EE000B0F5804F41F4800110D007D8B0F5005F05
:101EF00013D0B0F5405F0DD11D480FE0B0F5E04FB5
:101F000006D0B0F5104F05D11A4807E01A4805E091
:101F10001A4803E04FF0FF3000E0194811F4800F39
:101F200014D0002A0DDA510005D5110503D45B0049
:101F3000C2F3865201E0C2F3C552511CB3FBF1F368
:101F400004E0C1F3C352511CB3FBF1F3834238BF29
:101F5000184670BD002070BD60E00F400024F40002
:101F60000026000000093D0060E10F4010E00F4036
:101F700080F0FA02002D3101005A620240787D01A2
:101F800000B4C404C36A43F01001C162026B42F49E
:101F9000407343F001010163704783691B07FCD460
:101FA000C16A21F01002C262036B23F4407121F078
:101FB000010202637047F8B504460E4615461F46F7
:101FC000FFF7EBFFB6EB051F236B04D243F02001B4
:101FD00021636D0802E023F020002063F600B6FBC9
:101FE000F5F2551CEB090020C5F345056362A562B7
:101FF000E762A0612046BDE8F840FFF7C3BF0000DC
:1020000081F0004102E000BF83F0004330B54FEAA9
:1020100041044FEA430594EA050F08BF90EA020F16
:102020001FBF54EA000C55EA020C7FEA645C7FEAA9
:10203000655C00F0E2804FEA5454D4EB5555B8BFCC
:102040006D420CDD2C4480EA020281EA030382EA3D
:10205000000083EA010180EA020281EA0303362DCF
:1020600088BF30BD11F0004F4FEA01314FF4801CA2
:102070004CEA113102D0404261EB410113F0004FB4
:102080004FEA03334CEA133302D0524263EB43036B
:1020900094EA050F00F0A780A4F10104D5F1200E09
:1020A0000DDB02FA0EFC22FA05F2801841F1000164
:1020B00003FA0EF2801843FA05F359410EE0A5F138
:1020C00020050EF1200E012A03FA0EFC28BF4CF069
:1020D000020C43FA05F3C01851EBE37101F000451F
:1020E00007D54FF0000EDCF1000C7EEB00006EEB2C
:1020F0000101B1F5801F1BD3B1F5001F0CD34908B6
:102100005FEA30004FEA3C0C04F101044FEA44520C
:1021100012F5800F80F09A80BCF1004F08BF5FEA93
:10212000500C50F1000041EB045141EA050130BD73
:102130005FEA4C0C404141EB010111F4801FA4F116
:102140000104E9D191F0000F04BF01460020B1FA6B
:1021500081F308BF2033A3F10B03B3F120020CDAA3
:102160000C3208DD02F1140CC2F10C0201FA0CF081
:1021700021FA02F10CE002F11402D8BFC2F1200CE6
:1021800001FA02F120FA0CFCDCBF41EA0C0190409C
:10219000E41AA2BF01EB0451294330BD6FEA0404E5
:1021A0001F3C1CDA0C340EDC04F11404C4F12002D0
:1021B00020FA04F001FA02F340EA030021FA04F3E2
:1021C00045EA030130BDC4F10C04C4F1200220FA39
:1021D00002F001FA04F340EA0300294630BD21FA77
:1021E00004F0294630BD94F0000F83F4801306BF3D
:1021F00081F480110134013D4EE77FEA645C18BF31
:102200007FEA655C29D094EA050F08BF90EA020FC7
:1022100005D054EA000C04BF1946104630BD91EABF
:10222000030F1EBF0021002030BD5FEA545C05D1C2
:102230004000494128BF41F0004130BD14F5800401
:102240003CBF01F5801130BD01F0004545F0FE4175
:1022500041F470014FF0000030BD7FEA645C1ABFAA
:10226000194610467FEA655C1CBF0B46024650EAE1
:10227000013406BF52EA033591EA030F41F400210D
:1022800030BD00BF90F0000F04BF0021704730B593
:102290004FF4806404F132044FF000054FF0000168
:1022A00050E700BF90F0000F04BF0021704730B529
:1022B0004FF4806404F1320410F0004548BF4042FE
:1022C0004FF000013EE700BF42004FEAE2014FEA53
:1022D00031014FEA02701FBF12F07F4393F07F4F2E
:1022E00081F06051704792F0000F14BF93F07F4F60
:1022F000704730B54FF4607401F0004521F00041A3
:1023000020E700BF50EA010208BF704730B54FF028
:1023100000050AE050EA010208BF704730B511F02D
:10232000004502D5404261EB41014FF4806404F165
:1023300032045FEA915C3FF4DCAE4FF003025FEAE7
:10234000DC0C18BF03325FEADC0C18BF033202EB6F
:10235000DC02C2F1200300FA03FC20FA02F001FAC9
:1023600003FE40EA0E0021FA02F11444C1E600BF68
:102370004FF0FF3C06E000BF4FF0010C02E000BF51
:102380004FF0010C4DF804CD4FEA410C7FEA6C5C34
:102390004FEA430C18BF7FEA6C5C1BD001B050EAD7
:1023A000410C0CBF52EA430C91EA030F02BF90EAC2
:1023B000020F0020704710F1000F91EA030F58BF81
:1023C000994208BF90422CBFD8176FEAE37040F0E3
:1023D000010070474FEA410C7FEA6C5C02D150EA81
:1023E000013C07D14FEA430C7FEA6C5CD6D152EA3C
:1023F000033CD3D05DF8040B704700BF8446104601
:1024000062468C461946634600E000BF01B5FFF7FF
:10241000B7FF002848BF10F1000F01BD4DF808EDCF
:10242000FFF7F4FF0CBF012000205DF808FB00BFA0
:102430004DF808EDFFF7EAFF34BF012000205DF8FA
:1024400008FB00BF4DF808EDFFF7E0FF94BF012047
:1024500000205DF808FB00BF4DF808EDFFF7CEFF48
:1024600094BF012000205DF808FB00BF4DF808ED87
:10247000FFF7C4FF34BF012000205DF808FB00BF58
:102480004FEA410212F5001215D211D56FF478739C
:10249000B3EB625212D94FEAC12343F0004343EA3F
:1024A000505311F0004F23FA02F018BF404270471A
:1024B0004FF00000704750EA013005D111F00040A4
:1024C00008BF6FF0004070474FF00000704700BF3A
:1024D0004B6F70756B6C656D6520313520544C0009
:1024E00059696B616D6120313020544C000000004F
:1024F0004B7572756C616D61203520544C00000085
:1025000043696C616C616D6120353020544C000072
:1025100048697A6D657420536563696E697A000055
:1025200062616E6B6E6F7420626974746900000082
:102530007061726120796574657273697A00000058
:1025400052657365746C656E646900004261736105
:1025500020446F6E0000000000C0004000D000402A
:1025600000E00040001800F0011800F0021800F030
:1025700000400040008005400050004000900540B1
:102580000060004000A005400070004000B0054021
:102590000040024000C005400050024000D005400D
:1025A0000060024000E005400070024000F005407D
:1025B00000D0034000000640001006400010064016
:1025C0000020064000200640003006400030064053
:1025D00000400640004006400050064000500640C3
:1025E0000060064000600640007006400070064033
:1025F00000800640008006400090064000900640A3
:1026000040420F0000201C0080841E000080250036
:10261000999E36000040380000093D0000803E00D1
:1026200000004B00404B4C0000204E00808D5B00B2
:1026300000C05D000080700000127A0000007D0084
:1026400080969800001BB7000080BB00C0E8CE0059
:10265000647ADA000024F4000000FA0080A8120175
:10266000002D310100366E0140787D01F8B500BFC4
:10267000F8BC08BC9E467047F8B500BFF8BC08BC63
:042680009E467047BB
:102684000A00000014000000140000000A0000000A
:10269400050000001E00000014000000640000009B
:0426A4003200000000
:00000001FF
